:1000000000800020BD01000031330000ED3200000F
:10001000ED320000ED320000ED320000ED32000064
:10002000ED320000ED320000ED320000313300000F
:1000300031330000ED320000595000005D500000E7
:100040003133000031330000313300003133000020
:100050003133000031330000313300003133000010
:100060003133000031330000313300003133000000
:1000700031330000313300003133000031330000F0
:1000800031330000313300003133000031330000E0
:1000900031330000313300003133000031330000D0
:1000A00031330000313300003133000031330000C0
:1000B00031330000313300003133000031330000B0
:1000C00031330000313300003133000031330000A0
:1000D0003133000031330000313300003133000090
:1000E0003133000031330000313300003133000080
:1000F0003133000031330000313300003140000063
:10010000313300003133000031330000313300005F
:10011000313300003133000031330000313300004F
:10012000313300003133000031330000313300003F
:10013000313300003133000031330000313300002F
:10014000313300003133000031330000313300001F
:10015000313300003133000031330000313300000F
:100160003133000089430000313300003133000097
:1001700031330000313300003133000031330000EF
:1001800031330000313300003133000031330000DF
:1001900031330000313300003133000031330000CF
:1001A00031330000313300003133000031330000BF
:1001B000313300003133000031330000574B4CF233
:1001C000205210B5DA814DF62812DA8100BF00BF47
:1001D00003F0B2F8524B4FF010621A63514A9A631F
:1001E000514ADA63514A136913F4807303D153619E
:1001F0004FF4A85313614E4B9A78110703D59A78A0
:1002000042F008029A704B4B4B482A221A704B4B13
:10021000DA1C121AC11E22F00302994288BF002282
:10022000474902F08FFF474B4748DA1C121AC11E9C
:1002300022F00302994288BF0022002105F066FEE9
:10024000424943484FF4DE7202F07CFF414B424A80
:10025000802103F8011B9342FBD14FF0E0233C4A7D
:10026000C3F8082D3D4B8A221A70A3F5805324222F
:100270005A70A0221A709A799207FCD59A79D406FE
:10028000FCD4374B9A7902F00C02082AFAD10522E5
:100290001A7143225A719A799006FCD5304A9379A3
:1002A0005906FCD51E4B4FF08171596405219964A4
:1002B00020211170917901F00C010C29FAD1294A01
:1002C0005A604FF0E023284A5A6100229A610722BF
:1002D0001A61264AC3F8202D62B603F0BDF8134B0D
:1002E0005B69DA0705D5224803F0AAF8214B224AB8
:1002F000DA61224B1B785B0609D51E4C1E4BE26966
:100300009A4204D11A4803F09BF80023E36103F0FA
:1003100019F805F04DFE02F00DFFFEE70020054044
:1003200000800440823F04000100002B00D0034005
:1003300000D0074000E007401C87FF1F3088FF1FE8
:10034000CC650000288EFF1F3088FF1F00000000D2
:100350000082FF1F00E400E05FE400E00050064080
:1003600000400640C01005003F1901000000202099
:10037000A83FD56500E00340A5C3945A00F00740AC
:10038000FFFFFFFFFFFFFFFFFFFFFFFFFFFFFFFF7D
:10039000FFFFFFFFFFFFFFFFFFFFFFFFFFFFFFFF6D
:1003A000FFFFFFFFFFFFFFFFFFFFFFFFFFFFFFFF5D
:1003B000FFFFFFFFFFFFFFFFFFFFFFFFFFFFFFFF4D
:1003C000FFFFFFFFFFFFFFFFFFFFFFFFFFFFFFFF3D
:1003D000FFFFFFFFFFFFFFFFFFFFFFFFFFFFFFFF2D
:1003E000FFFFFFFFFFFFFFFFFFFFFFFFFFFFFFFF1D
:1003F000FFFFFFFFFFFFFFFFFFFFFFFFFFFFFFFF0D
:10040000FFFFFFFFFFFFFFFFFFFFFFFFDEF9FFFF23
:100410000548064B1B1AD90F01EBA301491002D066
:10042000034B03B1184770473088FF1F3088FF1F08
:100430000000000008B5054B1BB105490548AFF3A6
:100440000080BDE80840FFF7E3BF00BF00000000E8
:100450003088FF1FCC65000000207047002B70B56E
:1004600004460E46154603DD02EB42052E441D46AA
:10047000236820469B68984723680B4A5B6966603F
:100480009342656101D1204670BD204698470028FF
:10049000F9D00649064A4B68B2FBF0F0834238BFF8
:1004A00003464B60204670BD590400004888FF1F7A
:1004B00040420F0070B40F4A1468631C8C4283B032
:1004C000136013DB0C4C216801910199246800949E
:1004D0000A4C009D266825604FF47A7C891B0CFB32
:1004E00003F3B3FBF1F300214380116003B070BC50
:1004F000704700BF6488FF1F688CFF1F6888FF1F5C
:100500002DE9F04F43682B4C83B005460F4633B1BD
:1005100003F068F922686B68801A9842F7D303F0F9
:1005200061F9EB6820601BB13846A9689847074617
:10053000214B1C68002C35D000266B8894F8128063
:1005400061686269632B236898BFA674D3F804902E
:10055000ADF804608DF80660E7B104F10B0301A863
:1005600004F10E0E13F801BFBBF1000F0ED093F88B
:1005700003A00AF1010C0BFB0CCCBAF1000F05D063
:1005800007FB0CFC4FEA1C4C80F800C0734500F1DF
:100590000100E7D1204601ABC84784F81280A46867
:1005A000002CCAD11921284603B0BDE8F04FFFF74F
:1005B00081BF00BF5888FF1F5C88FF1FF0B50A4E3F
:1005C00083B033680093009F04460D46217820468F
:1005D000FFF796FF04F0A6FC33680193019BDB1B39
:1005E000AB42F3D303B0F0BD688CFF1F2DE9F04F91
:1005F00043682A4C83B005468A46174633B103F058
:10060000F1F822686B68801A9842F7D303F0EAF891
:10061000EB6820601BB13846A96898470746204B15
:100620001C689CB300266B8894F812806269632B67
:10063000236898BFA674D3F80090ADF804608DF8D5
:100640000660D7B104F10B0301A804F10E0C13F8F6
:1006500001BFBBF1000F0CD093F803E00EF10101D4
:100660000BFB0111BEF1000F03D007FB01F1090CD8
:100670000170634500F10100E9D1204601AB51460C
:10068000C84784F81280A468002CCCD119212846D0
:1006900003B0BDE8F04FFFF70DBF00BF5888FF1F44
:1006A0005C88FF1F10B582B079B90C4B1C6854B13F
:1006B0006068002120B1626902EB420205F026FC6D
:1006C000A468002CF4D102B010BD002201A9ADF83D
:1006D00004208DF80620FFF789FFE6E75C88FF1FFE
:1006E00000207047044BFF204FF0FF3100221860BC
:1006F0009960DA60704700BF4888FF1F00290BDD52
:1007000001EB4101431811780170517841709178E3
:10071000817003309842F6D1704700BFF9B10139BA
:1007200000B5D2431FFA81FED2B20EEB4E0EC31CAF
:1007300002F1010C9E440178427883780CFB01F1B0
:100740000CFB02F20CFB03F3091212121B120170D4
:100750004270837003308645EDD15DF804FB70472D
:10076000F0B5140904EB440E12F00F029DF814507A
:1007700001EB0E0C00D0F5B911F80E209CF80140E9
:100780009CF80210FF2B12D0002B44D00133DBB2B7
:100790001AB103FB0222C2F307221CB103FB04447B
:1007A000C4F3072419B103FB0111C1F3072102703F
:1007B00044708170F0BD0F2C11F80E609CF8015050
:1007C0009CF802E00F4601D00CF1030712013978C2
:1007D0007C78BF7802F1010C5FFA8CFC5242D2B2F5
:1007E00011FB0CF114FB0CF417FB0CFC16FB02F6CE
:1007F00015FB02F51EFB02FE091224124FEA2C2CF7
:1008000001EB162104EB15240CEB1E2CCAB2E4B24A
:100810005FFA8CF1B6E719461C461A46027044701E
:100820008170F0BD30B50578447882784FEAC50C08
:100830000CF0F80C0CEB8C0303EB03136344280659
:10084000C3F3072357D415F0400044D115F0200519
:100850007AD1D843C0B2FF2C19D0002C47D018B1A0
:1008600004FB0000C0F30720002B5DD11DB104FB89
:100870000555C5F30725E443E4B204FB0444C4F37F
:100880000724204423442C44C0B2DBB2E5B2FF2A43
:100890001DD012FB02F4003A18BF012202EB142211
:1008A00012F0FF0275D028B1541CE4B214FB00F022
:1008B000C0F3072023B1541CE4B214FB03F31B0A5A
:1008C0002DB10132D2B212FB05F2C2F30725087036
:1008D0004B708D7030BD15F020053ED04FF00000FC
:1008E000D843FF2C5FFA80FC5DD0002C5FD1FF2540
:1008F0002B462846CBE715F0400E1AD115F0200004
:1009000042D10CEBCC030CEB430C0CEBCC0CCCF33A
:10091000072CCCF1AB03FF2C0CF1550CDBB25FFACA
:100920008CF5B4D0002CE2D004FB0333C3F30723CF
:100930009CE715F0200C1DD103F15500C0B2C3F1A6
:10094000AB05EDB2634686E75533DBB2FF2C27D00B
:10095000002CCCD00546AB2082E70CEBCC000CEB96
:10096000400000EBC0000012563BC0F1AB00DBB210
:10097000C0B270E7A3F15600C0B24FF00005C3F15A
:100980005505EDB2002366E7DD431846EDB2734628
:1009900061E715461346104608704B708D7030BDE8
:1009A0000546AB2073E71D46002063466FE71D46F2
:1009B00000206346B8E700BF406970474FF4C87035
:1009C000704700BF10B501210446052002F0CEFE9D
:1009D000024BE3618022A26110BD00BFC0F00F4056
:1009E0002DE9F041214D224F224E82B0284620228F
:1009F0000521FFF793FE3B88318803EB432203EB8D
:100A0000820343F2196423449BB23B8003EB13231C
:100A100001EB4101C3F3C4034FF0FF082944603BDD
:100A200001A88DF804308DF805808DF80680FFF759
:100A3000F9FE3B88104803EB432203EB8203234477
:100A40009BB23B8003EB83031B0C338003EB43031C
:100A5000017805F803801D4485F8018085F802803F
:100A600002B0BDE8F041FFF74BBD00BF2C8BFF1F6C
:100A70001C87FF1FD089FF1F4888FF1F2DE9F04109
:100A80002C4B2D4C1B782D4D82B00746261DE3B113
:100A9000012B36D1B4424FF47F4807D014F8013F00
:100AA000022B06D0B44205F10305F7D102B0BDE830
:100AB000F0813846ADF8048005F008FA29468DF833
:100AC000060001A8FFF7AEFEECE7B4424FF65578FA
:100AD000ECD014F8013F022B07D0B44205F1030516
:100AE000E4D014F8013F022BF7D13846ADF804806A
:100AF00005F0ECF929468DF8060001A8FFF792FEF3
:100B0000EBE7A6424FF00007D0D014F8013F022BCC
:100B100007D0A64205F10305C8D014F8013F022B07
:100B2000F7D1294601A8ADF804708DF80670FFF7DB
:100B300079FEEEE7D889FF1F946200002F8BFF1F1C
:100B40002DE9F041354B36491D7890B004AA01F1EA
:100B5000400451F8043F9370180C8C424FEA132361
:100B60001070537002F10302F3D12E4A12680392FF
:100B700003992B024FF48C7201FB03F302FB03F386
:100B8000180E5900024646D5C24302F00F0101314A
:100B9000D2B2254B254DDFF89880C2F3011203EB4A
:100BA000420413F81230627812FB01F203EB2213B5
:100BB000DBB2020644BF5B42DBB283F0800303EB8F
:100BC000430646F397064036F6B20024012798F80C
:100BD0000020009704EB8401B31A0B442244023432
:100BE000DBB2D2B204A902A8E4B2FFF7B9FD9DF8C6
:100BF00008109DF809209DF80A3029700A2C6A70A7
:100C0000AB7005F10305E2D10A480178FFF778FCE3
:100C100010B0BDE8F08100F00F01BAE73C87FF1F7C
:100C200014610000688CFF1F8C6200002C8BFF1F7A
:100C3000198BFF1F4888FF1F2DE9F0411C4B1D4AEF
:100C40001B681D4D1D4E82B02F1D0193019B02FBA1
:100C500003F3DA1782EA13625200D2B202FB0223D4
:100C60001B1202FB0332121203EB4303A3EB4203FA
:100C700013F4807F18BF4FF0FF33AF4203F0FF043F
:100C80004FF0FF0807D015F8013F062B06D0AF4202
:100C900006F10306F7D102B0BDE8F081314668469F
:100CA000ADF800808DF80240FFF7BCFDEFE700BF14
:100CB000688CFF1F00A04100946200002F8BFF1F73
:100CC00070B5012184B02F4804F026F82E48142274
:100CD0000521FFF723FD2D4B1B680393039BC3EBFB
:100CE000C30303EB83131803C3F34F11C3F30A22A7
:100CF00003D540F2FF70821A92B2130A2448254CA1
:100D0000C05C34F81340244EC2F3460200FB024498
:100D10000B04A4B244BF6442A4B2204B35681B78D4
:100D20008DF8043084F4004404EB4404C4F3CF345D
:100D3000DC22FF23A5428DF8052002A901A88DF829
:100D4000063012DDFFF76EFD0F48291B04EB44034C
:100D500002AA01311844FFF7D1FC11483460017830
:100D600004B0BDE87040FFF7CBBBFFF75BFD064862
:100D7000611B05EB450502AA01312844FFF7BEFCC3
:100D8000EBE700BFA46100002C8BFF1F688CFF1FE6
:100D9000AC6300009C630000D489FF1F198BFF1F08
:100DA0004888FF1F38B50121054602F0DFFCFF240B
:100DB0002146284602F0A2FB013C0A2002F032FD47
:100DC000372CF5D10021284602F098FB4FF47A70B9
:100DD00002F028FDC821284602F090FB4FF47A70FB
:100DE00002F020FD28460021BDE8384002F086BB15
:100DF00010B41E4A83B01468009483B2FF2B009C89
:100E0000126801929CBF1B029BB24FF48C7104FBD1
:100E100003F301FB03F3B3F1005F4FF0FF3328BF8F
:100E200000230028B8BF0330C0F38F00FF280199CA
:100E30009CBF000280B2C8394FF48C7200FB01F1F4
:100E400002FB01F1B1F1006FDBB24FF0FF3128BFBF
:100E5000002153FA81F1FE29A8BFFE21C1F1FF0153
:100E6000092003B010BC02F049BB00BF688CFF1F13
:100E700038B5134C1348144D0E2103F04DFF204696
:100E800002F040F901210D2002F070FC01210D203B
:100E900002F046FC4FF4FA7002F0C4FC00210D2071
:100EA00002F03EFC094A0A48002311212B701370FE
:100EB00003F032FF2046BDE8384002F023B900BFFE
:100EC0007487FF1F586100009988FF1F9888FF1FD3
:100ED000686100002DE9F04FC74AC8481268DFF882
:100EE00020A3C84C83B00023019201990A2202F08A
:100EF00017F90F21C44803F00FFF01210D2002F064
:100F00000FFCC24B9AF8002062719A792271501C32
:100F1000BF4AA2604222E2714FF48172A28140F284
:100F2000FE629AF80110628004F103084FF6FF7226
:100F3000A1719871E51D46460621174601E016F895
:100F4000011F7940C9B20801C0B241400A0982EAD2
:100F5000172242EA0122B54282EAC107EFD13A469E
:100F6000AC4F4FF0020C6146781D3D46944601E0BF
:100F700015F8011F81EA0C01C9B20A01D2B2514031
:100F80000A0982EA1C2282EA012282EAC1011FFACE
:100F900081FCA842A4F800C009B2E9D181F0940113
:100FA000C9B20801C0B241404FEA111989EA1C29AF
:100FB000DFF864B289EA012989EAC1090C220FFA33
:100FC00089F99649A4F800905846A4F80E9002F0CA
:100FD000B9F8934BABF80C900E215846198002F0EB
:100FE000D7FE0A2002F01EFC884B9A79227101324A
:100FF0009A719AF8002062719AF80120A271844ACD
:10100000A2604222E27140F20B12A28140F2FE6223
:1010100062804FF6FF7240460621944601E010F8C8
:10102000011F81EA0C01C9B20A01D2B251400A097A
:1010300082EA1C2242EA0122864282EAC10CEED1F7
:1010400062464FF0020C3846614601E010F8011F7D
:101050005140C9B24FEA011C5FFA8CFC81EA0C01D5
:101060004FEA111C8CEA122282EA012282EAC101B3
:101070008AB28542228009B2E8D181F09401C9B2D6
:101080000801C0B241404FEA111989EA122989EAE0
:10109000012989EAC1090C220FFA89F95F495E48E2
:1010A000A4F80090A4F80E9002F04CF85C4B5A485B
:1010B000ABF80C900E21198002F06AFE0A2002F0B3
:1010C000B1FB524B9A79227101329A719AF8002041
:1010D00062719AF80120A2714D4AA2604222E27127
:1010E00040F20112A28140F2FE6262804FF6FF726E
:1010F00040460621944601E010F8011F81EA0C01E8
:10110000C9B20A01D2B251400A0982EA1C2242EA5B
:101110000122864282EAC10CEED162464FF0020CF7
:101120003846614601E010F8011F5140C9B24FEA4C
:10113000011C5FFA8CFC81EA0C014FEA111C8CEA5D
:10114000122282EA012282EAC1018AB28542228009
:1011500009B2E8D181F09401C9B20801C0B241409E
:101160004FEA111989EA122989EA012989EAC10994
:101170000C220FFA89F929492748A4F80090A4F80D
:101180000E9001F0DFFF264B2348ABF80C900E21A8
:10119000198002F0FDFD0A2002F044FB1B4B9A79F6
:1011A000227101329A719AF8003063719AF8013015
:1011B000A3711C4BA3604223E37140F20313A3818C
:1011C00040F2FE6363804FF6FF730622184601E08B
:1011D00018F8012F4240D2B21101C9B24A40130996
:1011E00083EA102343EA0223464583EAC200EFD193
:1011F00005210A46014619E0688CFF1F7487FF1F0E
:101200004087FF1F408BFF1F7C610000C489FF1FC8
:1012100002000101488BFF1F0C8AFF1F428BFF1F3A
:101220003C8BFF1F0500010117F8012F4A40D2B285
:101230001301DBB25A40130983EA112383EA022324
:1012400083EAC20291B2BD42218012B2ECD182F097
:101250009402D2B20B461101C9B24A40150985EA7F
:10126000132585EA022585EAC2052DB20C220C4918
:101270000C482580E58101F065FF0B4B0948ABF870
:101280000C500E21198002F083FD00210D2002F088
:1012900047FA064A13680133136003B0BDE8F08FC4
:1012A000428BFF1F0C8AFF1F3C8BFF1F508CFF1FC0
:1012B000F0B5564C564D236856492A7887B00593A9
:1012C000059B03F2DC530B60002A44D1524E336875
:1012D00033B923680493049A42F210739A423FD8B8
:1012E00022684E4B0392039A1B689A4220D84C4BBB
:1012F00093F90020042A2CDD4A4928784A4B0870CB
:1013000001212970052A4FF000051D704FD00121E1
:101310000D2002F005FA4548454B0178FF244FF6B1
:10132000FF72DC709A8007B0BDE8F040FFF7E8B8C4
:101330003D4E4048337806210133337003F0ECFC16
:1013400096F900103C4801F0D5FE96F90030052BC7
:1013500009DC07B0F0BD01210D2002F0E1F9B5E78D
:10136000FFF7B8FDBCE72F4F2B783B7000262C4BC6
:101370002E7031460D201E7002F0D2F92C4B2B48F6
:10138000DE709E800178FFF7BBF83B78002B33D0EE
:10139000236802930299284833460A2201F0C0FECE
:1013A0002648112107B0BDE8F04003F0B5BC042188
:1013B000234803F0B1FC236800930A222B460099CE
:1013C0001D4801F0ADFE0B211E4803F0A5FC0A21CB
:1013D0001D4803F0A1FC1D49174809782B460A2235
:1013E00001F09EFE0421164803F096FC1848294699
:1013F00003F092FC35608AE72268019201990E4859
:101400000A2201F08DFE13481021CBE7688CFF1FE4
:101410009888FF1F248BFF1F508CFF1F9C88FF1F85
:10142000208BFF1F9988FF1F218BFF1F4888FF1FFC
:101430002C8BFF1F8C6100007487FF1F94610000DC
:10144000BC610000C4610000D0610000058AFF1F7C
:10145000C0610000A86100002DE9F04784B002F0EF
:1014600043FD0028DFF84082904D914F74DD02F07B
:101470004FFDC4B200230A222146404601F050FE2F
:10148000404601F03FFEEB7800222A700A2B00F262
:101490000C82DFE813F042004200F300DE00C900D6
:1014A000B4009C00810064000B000B000A2B814EED
:1014B00004D03388B4EB132F00F0028195F8049028
:1014C0007C497B4806EB090A4FF488728AF8094088
:1014D00001F038FE9AF809E09AF808106A79764B1C
:1014E00096F803C087F803C0012041EA0E2195F861
:1014F00002C0B5F808E0398002440021FE2CD87003
:1015000083F804905A71A3F808E0A3F80AC0A87001
:10151000297000F03A81E87016E0FE2C654E00F06C
:101520004E81F47828796979634A95F802C0B5F854
:1015300008E0FC7001310026D37010715171A2F8DF
:1015400008E0A2F80AC0AE704FF44F63013BFDD132
:1015500002F0CAFC00288ADC04B0BDE8F087554ED2
:10156000564AF3793188D25C28794A40D2B21301C5
:10157000DBB25A40130983EA112343EA022383EAC8
:10158000C20332183380DBB29C4214BF0A23092302
:101590001472F478EB70C6E7464E287932180130A1
:1015A000147231884C40E4B22201D2B25440220974
:1015B00082EA112242EA042282EAC402F4783280EA
:1015C000C0B2A0422871AED10823EB70ABE7394E10
:1015D0003288F4715440E4B22301DBB25C40230949
:1015E00083EA122343EA042383EAC403F4783380B2
:1015F000002C40F0D18008232879EB7093E72D4E22
:1016000028793288B4715440E4B22301DBB25C40E3
:10161000230983EA122343EA042383EAC4033380C1
:101620000623F478EB707EE7224E287932883471F5
:101630005440E4B22301DBB25C40230983EA122365
:1016400043EA042383EAC40333800323F478EB7072
:1016500069E7184E2879328874715440E4B2230146
:10166000DBB25C40230983EA122343EA042383EAC2
:10167000C40333800523F478EB7054E70D4E3188B2
:10168000F47084EA0103DBB21A01D2B253401A09A2
:1016900082EA112242EA032282EAC3030020338055
:1016A00004232871EB703EE77487FF1FC489FF1F76
:1016B000408BFF1FB488FF1F588CFF1F9C620000E7
:1016C00095F8049006EB090C01234FF4887231461B
:1016D00038468CF809402B70EB7001F033FD2A89F5
:1016E00033796B7102B96A8197F805C0774896F82B
:1016F00003A095F802E087F803A00126013292B218
:1017000099190024B4452A81C67080F8049041716B
:101710000281A0F80AE0AC707FF416AFBE79012E0A
:101720007FF412AFDFF8A8916A4BDFF8ACA11E700E
:10173000D9F800300193019BD9F80020009203F200
:10174000DC530A220099CAF800304046234601F0D3
:10175000E7FC0621614803F0DFFA2346F9790A2203
:10176000404601F0DDFC5E48314603F0D5FAFB79D6
:10177000182B00F08C8013D9412B5ED04A2B7FF4BC
:10178000E3AE584B7A8B1A80DEE64FF6FF73338058
:101790000223F170EB70D7E607232879EB70C2E6DD
:1017A000A3B1012B7FF4D0AE4F4BFA8A1A804F4B76
:1017B0003A8B1A804E4B97F826201A70C4E64D4A91
:1017C000287932600223EB700024ACE6D9F80020BF
:1017D0000392039A4848494CD9F80010DFF820C119
:1017E000D7F808E0029102F2DC52CAF80020BA7B76
:1017F0002178444E02F08002072A94BF0022012281
:1018000002704148C0F800E0387C8CF800000131DB
:10181000F87B21700A2202993070404601F080FC6A
:101820000B213A4803F078FA94F90010404601F091
:1018300061FC404601F066FC86E6354B97F83020A7
:101840001A70344BBA895A80FA899A803A8ADA80B7
:101850007A8A1A81BA8A5A81FA8A9A813A8BDA810B
:101860007A8B1A82BA8B5A82FA8B9A823A8CDA82F3
:101870007A8C1A83BA8C5A83FA8C9A833A8DDA83DB
:101880007A8D1A84BA8D5A84FA8D9A845CE6224B3A
:1018900097F824201A70214B97F8251020481970CA
:1018A0000A2313FB012303604EE61E4E6979F2788A
:1018B000FA70064A2879D3702B891381AB7853814B
:1018C0000131002310715171AB703DE6588CFF1F40
:1018D000688CFF1F9888FF1F9C88FF1FDC61000039
:1018E000E4610000088AFF1F0A8AFF1F028AFF1FA7
:1018F000DA89FF1FFFFFFE00D889FF1F208BFF1F23
:10190000058AFF1F2887FF1F2487FF1FE86100004B
:10191000008AFF1FDC89FF1F048AFF1F068AFF1F42
:101920001C8BFF1FB488FF1F154B1B78012B04D0A5
:1019300040F2E733134A13607047134B1B68013BB7
:10194000102B0CD8DFE803F00F0B09111309090B5A
:10195000110B0F0B0B15171319000423EAE7094AA3
:101960000123136070470323E4E70523E2E7022322
:10197000E0E70723DEE70823DCE70623DAE700BF1A
:10198000D889FF1F2087FF1F2487FF1F2DE9F04FF5
:10199000012883B01CD0674C674D261D012300270A
:1019A00005E0B44205F103050FD014F8013F012B07
:1019B000F7D1294601A8ADF804708DF80670FEF73E
:1019C00031FFB44205F10305EFD103B0BDE8F08F5C
:1019D0005A4B1B780446042B00F29F80DFE803F08B
:1019E00075883E0303004FF6A0730846ADF8043037
:1019F00004F06CFADFF84881524E0346694601A8AC
:101A00008DF80630FEF70EFF0023C8F800304E4B6D
:101A10001A6833689A42D8D30027464A9DF800E0F6
:101A20009DF801C09DF80250434B101D012101E0BB
:101A300012F8011F012904D183F800E083F801C0E6
:101A40009D70824203F10303F2D1404BC8F800407D
:101A50001B683B44336003B0BDE8F08F4FF6A073C2
:101A60000846ADF8043004F031FA0DF104090346DC
:101A7000694648468DF80630FEF7D4FE4FF4FA77F3
:101A8000314B304E1A6833689A429ED3DFF8B080EB
:101A9000D8F80030002BC0D0264C274D04F1040AA2
:101AA00001234FF0000B05E0544505F1030532D04A
:101AB00014F8013F012BF7D129464846ADF804B090
:101AC0008DF806B0FEF7AEFEEEE74FF47F43084612
:101AD000ADF8043004F0FAF90DF104090346694643
:101AE00048468DF8063040F2EE27FEF79BFEC7E72A
:101AF0004FF627730846ADF8043004F0E7F90DF10E
:101B000004090346694648468DF806304FF41677B7
:101B1000FEF788FEB4E7002497E70DF104090027DB
:101B200069464846ADF804708DF80670FEF77AFEF7
:101B3000A6E700BF946200002C8BFF1F048AFF1FE2
:101B4000548CFF1F648CFF1F148BFF1F288BFF1FFB
:101B50002DE9F0432F4C304E83B0274600254FF43B
:101B60007F48394601A88DF80650ADF804805035FD
:101B7000FEF758FE31783046FEF7C2FCEDB2142174
:101B80003046FEF71BFD902D07F10307E9D1214FE9
:101B9000DFF8848000254FF65579394601A88DF885
:101BA0000650ADF804905035FEF73CFE31784046C3
:101BB000FEF7A6FCEDB214214046FEF7FFFC902D87
:101BC00007F10307E9D1DFF85490134D4FF0FE08F9
:101BD0000027317884F8008028466770A770FEF7E8
:101BE0008FFC0334C8212846FEF7E8FC4C45F0D1B1
:101BF00009480021FEF756FD31780748FEF780FCC2
:101C00000D21074803F088F8064803B0BDE8F0430B
:101C100001F078BA2C8BFF1F4888FF1F3B8BFF1FFA
:101C2000F46100007487FF1F2DE9F04F0F2187B08A
:101C3000664803F071F8664801F064FA6548046884
:101C4000BFF35B8F14F0010400F09F80052262490E
:101C50006248DFF88CB1DFF88C81DFF88CA1634C2F
:101C6000634F644EDFF890910023FEF7F7FB60238B
:101C70008BF80030FFF76CFF0921604803F04CF847
:101C8000534801F03FFA4FF4FA753FE0236802939E
:101C9000D7E90012029B5B1A934207D3584A216886
:101CA000137803910399396001331370554B1B6806
:101CB000BFF35B8FDB0748D523680493049A33880E
:101CC000A9FB0212C3EB921372889BB29A421BD8F3
:101CD00098F8001020684C4B05900131A3FB0132AD
:101CE000059BA9FB03039B09338002F4FF7303EBFD
:101CF0005203C91A364888F8001000230A2201F05E
:101D00000FFA334801F0FEF9013D30D03F4A98F810
:101D1000003052F82330984721215846FEF74EFCF8
:101D2000DAF80030BFF35B8FDA07AFD4504601F02A
:101D30000BFB0028AAD023680093009A1423504676
:101D4000C7E9002301F006FBA0E72E4801F0FCFAEA
:101D50000028B1D023680193019B2A48A9FB0313F3
:101D60000A229B093380728001F0F4FAA4E74FF451
:101D7000FA7001F057FD0821254802F0CDFF144804
:101D800007B0BDE8F04F01F0BDB901F0DDFA002861
:101D90003FF45CAF1F4A114B11681F485C604FF065
:101DA000FF35DD609C6018615C6161B11B4A1168A0
:101DB00001B18B601A490748196000241C84136024
:101DC00001F0C8FA42E71360F0E700BF04620000C8
:101DD0007487FF1F7088FF1F2C8BFF1F7488FF1FE5
:101DE0004888FF1F188BFF1FA088FF1F688CFF1FEC
:101DF000A888FF1FB088FF1FD34D62101462000037
:101E0000198BFF1FA488FF1FABAAAAAA3087FF1F48
:101E1000206200005C88FF1FFFFF01006088FF1F39
:101E20007062000030B5124D83B02B6800930099AA
:101E30004FF40C1404FB01F1B1F1005F4FF0FF31DE
:101E400038BF00210420C9B201F058FB2B68019370
:101E5000019904FB01F1B1F1005F4FF0FF3138BF90
:101E600000210320C9B203B0BDE8304001F046BBF9
:101E7000688CFF1F30B50C4D83B02B68019301991E
:101E80004FF48C1404FB01F10420090E01F036FB21
:101E90002B680093009904FB01F10320090E03B0A5
:101EA000BDE8304001F02ABB688CFF1F00B51F4B16
:101EB0001B785B0783B01ED51D4A128843F21F535F
:101EC0009A4215D90121042001F02AFC01210320A6
:101ED00001F026FC174B197821B1012911D00229F4
:101EE0000CD00121062003B05DF804EB01F018BC12
:101EF000FFF798FFEEE7FFF7BDFFEBE703B05DF8F4
:101F000004FB0D4A0D4B12680192019903FB01F18C
:101F1000B1F1005F4FF0FF3138BF00210620C9B298
:101F200003B05DF804EB01F0E9BA00BF2887FF1F9A
:101F30000A8AFF1F048AFF1F688CFF1F004083006E
:101F40002DE9F04F132183B0AB48AC4DAC4E02F0FD
:101F5000E3FEAC4801F0D6F8AB4AAB8B12680192B5
:101F6000019AAA483260C621A3F57A73A84A00787C
:101F7000107001FB03F3A74903F5FA73002B81FBF3
:101F800003414FEAE372EB8BC2EBA112A249ACBF53
:101F900002320132B3F57A7F0A6040F2C180B3F5B4
:101FA000876F31D8288C9D4B6524B0F5617F1C600C
:101FB00040F20282A0F2D63003F08EFA984B002253
:101FC00003F01EFC03F004FDC0B2642828BF6420A7
:101FD00003F0D4FD934903F0DDFE0546924F6D2CCE
:101FE0003D6060DC652C00F38480013C072C4ED8FA
:101FF000072C4CD8DFE814F0B00120008401580110
:1020000042004B004B00360140F28D42934200F2F9
:10201000A480288C814B6624B0F5617F1C60C9D8F0
:10202000824B814F1D463B602846FEF727FD3968ED
:102030000120FFF7ABFC2AE0DFF8F481DFF8F49130
:1020400008F1040B4446A345CA4608D014F8013FE2
:10205000032B00F0F381A3450AF1030AF6D14445AE
:10206000D7F800A04FF47F4508D018F8013F042BA3
:1020700000F01E82444509F10309F6D1FEF7DCFDAC
:102080003868FEF7FBFC39680120FFF77FFCFFF79B
:102090000DFF69480178FEF733FA684B32681A6021
:1020A00003B0BDE8F08F40F2E7339C42EFD1604CC3
:1020B000DFF8809104F1040825464545CA464FF0F3
:1020C000000B08D015F8013F032B00F08E81454529
:1020D0000AF1030AF6D144454FF00005CED014F8BA
:1020E000013F042B00F0A181444509F10309F6D119
:1020F000C4E7663C072CCAD801A353F824F000BFFC
:10210000292000007B210000552100008F200000C5
:10211000552100005F2200008F200000F121000007
:10212000FFF702FC288C3D4BB0F5617F1C683FF641
:1021300041AF3E4D52E7B3F5A56F00F23181374B09
:1021400068241C60288CB0F5617F3FF633AF364BB6
:10215000364A1A60FEF770FD99E740F2E242934278
:10216000E9D8288C2D4B6724B0F5617F1C603FF6C1
:1021700021AF2E4B2C4F1D463B602D4CDFF8B4A0F9
:1021800004F10409A046C845D34608D018F8013F19
:10219000032B00F09981C8450BF1030BF6D14C4598
:1021A000D7F800804FF47F4508D014F8013F042B86
:1021B00000F00F814C450AF1030AF6D13868FEF7AA
:1021C0005DFC39680120FFF7E1FBFEF735FD5EE7B6
:1021D00040F2C262934200F2A181288C0F4B6D2421
:1021E000B0F5617F1C603FF6E5AE0F4B0F4A1A60F9
:1021F000FEF7A6FC4BE700BF2C620000DC89FF1F46
:10220000148BFF1F7487FF1F688CFF1FD889FF1F67
:10221000D989FF1FD34D62103C87FF1F2087FF1F06
:10222000000024400000C8422C87FF1F9A99193EE5
:10223000946200002F8BFF1F4888FF1F288BFF1F11
:10224000B3F5C36F00F26281288CC14B6B24B0F5EB
:10225000617F1C603FF6AEAEBE4BBF4A1A60FEF710
:10226000BFFB14E7BD4CDFF8F8A204F10409A04657
:10227000C845D34608D018F8013F032B00F0C780AB
:10228000C8450BF1030BF6D14C453F684FF47F4531
:102290003FF4FDAE14F8013F042B00F023814C45C0
:1022A0000AF1030AF6D1F2E6DFF8B0822846FEF71B
:1022B000E5FBAB4D3968012008F1040B4446FFF7FC
:1022C00065FBA345D7F800A0A94608D014F8013F44
:1022D000032B00F0CD80A34509F10309F6D1444555
:1022E000D7F800904FF47F473FF4D1AE18F8013F84
:1022F000042B00F0B180444505F10305F6D1C6E694
:10230000964CDFF85C82271D2546BD42C1464FF63C
:10231000607B4FF0FA0A07D015F8013F032B4FD02E
:10232000BD4209F10309F7D1BC424FF47F494FF098
:10233000FA0507D014F8013F042B5FD0BC4208F126
:102340000308F7D1FEF778FC8648FEF797FB85492E
:102350000120FFF71BFB9AE6804D814F05F1040B2E
:102360002C46A345B8464FF6607A4FF0FA0908D0DC
:1023700014F8013F032B00F09280A34508F10308F5
:10238000F6D1A5424FF47F494FF0FA08DAD015F89C
:10239000013F042B7AD0A54207F10307F7D1D1E71B
:1023A000B3F5AF6F00F2AA80694B69241C60288CDA
:1023B000B0F5617F3FF6FEAD664B674A1A6066E690
:1023C00049466846ADF800B08DF802A0FEF72AFA3B
:1023D000A6E74046ADF8005003F078FD51468DF871
:1023E00002006846FEF71EFAE4E651466846ADF87C
:1023F00000B08DF802B0FEF715FA68E6414668466F
:10240000ADF800908DF80250FEF70CFA96E74FF603
:1024100060732846ADF8003003F058FD59468DF83A
:1024200002006846FEF7FEF92AE749466846ADF81D
:1024300000508DF80250FEF7F5F955E64FF660733F
:102440002846ADF8003003F041FD51468DF80200FA
:102450006846FEF7E7F9FEE54846ADF8007003F080
:1024600035FD29468DF802006846FEF7DBF942E7A4
:102470004FF660735046ADF8003003F027FD494633
:102480008DF802006846FEF7CDF924E73946684624
:10249000ADF800908DF80280FEF7C4F97BE7414665
:1024A0006846ADF800A08DF80290FEF7BBF964E72E
:1024B0005046ADF8005003F009FD49468DF8020082
:1024C0006846FEF7AFF9D5E54FF660732846ADF8DC
:1024D000003003F0FBFC59468DF802006846FEF719
:1024E000A1F958E63846ADF8005003F0EFFC51462C
:1024F0008DF802006846FEF795F9D0E6B3F5B96F9E
:102500003FF69EAE124B6A241C601BE6B3F5CD6FFE
:102510003FF65EAE0E4B6C241C6048E740F2127230
:10252000934203D80A4B6E241C6040E740F262726B
:10253000934203D8064B6F241C6038E740F2AE721A
:1025400093423FF6EDAD024B70241C602FE700BFB5
:102550002087FF1F2C87FF1F9A99193E9462000065
:102560002F8BFF1F00007A432DE9F047534C84B0B6
:10257000FEF772FF2268524B0292029A1B689A423F
:1025800001D9FEF795FE4F4B93F800A0BAF1000F6A
:1025900043D023680093009B4B4AA2FB0302FA211D
:1025A000120901FB1233C72B484A49484FF0FF3349
:1025B00098BF0023DBB20178D37013715371FDF71C
:1025C0009FFFFFF7BDFC40204249FEF711FC236846
:1025D000019301993C4BA3FB01034FF47A729B09D1
:1025E00002FB1311312994BF002101210D2001F0BC
:1025F00097F8236803930399374BA03903FB01F144
:10260000B1F1005F4FF0FF3138BF0021C9B20A209D
:1026100004B0BDE8F04700F071BF304EDFF8C08075
:10262000351D3746AF42C14607D017F8013F032B8F
:1026300031D0AF4209F10309F7D1284FAF42C1466B
:102640004FF0000A07D017F8013F042B2CD0AF42FF
:1026500009F10309F7D1FEF7EFFAAE424FF0000798
:1026600007D016F8013F022B0CD0AE4208F1030848
:10267000F7D11C490120FFF789F915480178FDF7CA
:102680003FFFA0E7414603A8ADF80C708DF80E702F
:10269000FEF7C8F8E9E7494603A8ADF80CA08DF8A5
:1026A0000EA0FEF7BFF8C4E7494603A8ADF80CA09A
:1026B0008DF80EA0FEF7B6F8C9E700BF688CFF1FC3
:1026C000248BFF1F9888FF1FD34D62102C8BFF1F98
:1026D0004888FF1F00007F4300A041009462000073
:1026E0002F8BFF1F000016432DE9F0434FF0E0242D
:1026F000A64AD4F8FC1DA64B41F08071C4F8FC1D1D
:102700001168002441F0010111605460D3F8C02029
:10271000D3F8C02022F08002C3F8C020417B037CA4
:1027200002685B1ADBB243735678844616B186FAA8
:1027300053F6F6B29CF8133003FB0666C6F3072681
:1027400072B6924BDCF808105A68002902F15A025E
:1027500040F3DA808E4840F6C85E9CF80C909CF8F6
:102760000D809CF80E709CF80F509CF810409CF85F
:102770001110A5EB0905A4EB0804C91B8CF80C503B
:102780008CF80D408CF80E1072B65968914204D93D
:102790005968891A714500F2F580D0F8C040D0F828
:1027A000C05044F0800425F0800507275968914205
:1027B000FCD35A68C0F8C040310602F15A0200F159
:1027C000A8805968511A4E29FBD87600013FC0F8FD
:1027D000C050F6B2EAD159688A42FCD85A68C0F8AB
:1027E000C040360602F15A0200F19D805968511A24
:1027F0004E29FBD8DCF80060C0F8C050377827B10C
:102800009CF80C1087FA51F7FFB29CF8121001FBEC
:1028100007774FF00708C7F3072759689142FCD3A1
:102820005A68C0F8C040390602F15A0200F18580AA
:102830005968511A4E29FBD87F00B8F10108C0F839
:10284000C050FFB2E9D159688A42FCD85A68C0F832
:10285000C0403F0602F15A0279D45968511A4E29F4
:10286000FBD8C0F8C050B77827B19CF80E1087FA93
:1028700051F7FFB29CF8141001FB07774FF00708DF
:10288000C7F3072759689142FCD35A68C0F8C04083
:10289000390602F15A0263D45968511A4E29FBD8FD
:1028A0007F00B8F10108C0F8C050FFB2EAD1596802
:1028B0008A42FCD85A68C0F8C040390602F15A0270
:1028C00057D45968511A4E29FBD8C0F8C050DCF8CB
:1028D00008109CF9154001392644CCF80060CCF86A
:1028E0000810767826B19CF80D1086FA51F6F6B2EB
:1028F0009CF8131001FB0666C6F3072662B6DCF8E7
:10290000081000293FF729AF62B6204B5868BDE890
:10291000F0835968511A21297FF657AF5968511A27
:102920002129F6D851E75968511A21297FF662AF5B
:102930005968511A2129F6D85CE75968511A21299A
:102940007FF67AAF5968511A2129F6D874E7596889
:10295000511A212985D95968511A2129F7D880E7B8
:102960005968511A21299BD95968511A2129F7D838
:1029700096E75968511A2129A7D95968511A21296E
:10298000F7D8A2E762B60020BDE8F083001000E0AF
:1029900000F00F4030B5044689B00D4600F022FF2C
:1029A000238CC31A9BB2312BF8D9EA6804922A8A85
:1029B000ADF814202A6801926A8AADF81620AA8A16
:1029C0006B68ADF8182001A8AA69029303930792D7
:1029D000FFF78AFE20B100F005FF208409B030BD6A
:1029E00062B64FF49663013BFDD172B6EA68049279
:1029F0002A8AADF814202A6801926A8A6B68A98A2B
:102A0000ADF8162001A8AA69ADF818100293039337
:102A10000792FFF769FE00F0E5FE208409B030BDA3
:102A200070B504468EB0807C0091019219780292B4
:102A300001285A789B788DF812108DF813208DF8A4
:102A4000143050D000230393ADF81030236842496E
:102A50009A6900238A428DF81530069377D100F0E9
:102A6000C1FE238CC31A9BB2312BF8D90399BDF850
:102A700010200A91ADF82C200099BDF81220019B7E
:102A80000791ADF82E20BDF81410069AADF830105D
:102A900007A8089309930D92FFF726FE20B100F0D6
:102AA000A1FE20840EB070BD62B64FF49663013B68
:102AB000FDD172B60399BDF810200A91ADF82C2013
:102AC0000099BDF81220019B0791ADF82E20BDF8AA
:102AD0001410069AADF8301007A8089309930D92C8
:102AE000FFF702FEDBE71D480378013303F007031D
:102AF000DA010370D2B2980748BF42F040025B0788
:102B000048BF42F020021032D2B203AB0DF10F05E4
:102B10004FF48076C1B1B6FBF1F1C9B2481CC0B226
:102B200000FB022CCCF3072E5FEA2C2C18BF0EF111
:102B3000FF3CD87083F800C000B1D97001339D42CA
:102B400084D099790029E6D1D9701970F6E76946E1
:102B5000204690470EB070BD952900006C88FF1F7D
:102B600070B504468EB0807C009101921978029273
:102B700001285A789B788DF812108DF813208DF863
:102B8000143051D000230393ADF810302368434A2A
:102B90009B690320002193428DF81500069177D19F
:102BA00000F020FE238CC31A9BB2312BF8D9039975
:102BB000BDF810200A91ADF82C200099BDF8122024
:102BC000019B0791ADF82E20BDF81410069AADF8C0
:102BD000301007A8089309930D92FFF785FD20B1E7
:102BE00000F000FE20840EB070BD62B64FF4966314
:102BF000013BFDD172B60399BDF810200A91ADF8E2
:102C00002C200099BDF81220019B0791ADF82E20D1
:102C1000BDF81410069AADF8301007A80893099370
:102C20000D92FFF761FDDBE71D480378013303F0E8
:102C30000703DA010370D2B2980748BF42F040029E
:102C40005B0748BF42F020021032D2B203AB0DF155
:102C50000F054FF48076C1B1B6FBF1F1C9B2481C43
:102C6000C0B200FB022CCCF3072E5FEA2C2C18BF5D
:102C70000EF1FF3CD87083F800C000B1D970013369
:102C80009D4283D099790029E6D1D9701970F6E771
:102C90006946204698470EB070BD00BF95290000D8
:102CA0006C88FF1F70B590B000230268ADF800304B
:102CB0008DF802301568524EADF80430B5428DF8EB
:102CC00006305BD10446807C039101280491ADF865
:102CD0001A308DF81C30CDF808D055D00593ADF8DA
:102CE00018309269474900238A428DF81D300893B5
:102CF00040F0818000F076FD238CC31A9BB2312B0B
:102D0000F8D90599BDF818200C91ADF83420029936
:102D1000BDF81A20039B0991ADF83620BDF81C10B0
:102D2000089AADF8381009A80A930B930F92FFF791
:102D3000DBFC20B100F056FD208410B070BD62B6FF
:102D40004FF49663013BFDD172B60599BDF818208A
:102D50000C91ADF834200299BDF81A20039B09911B
:102D6000ADF83620BDF81C10089AADF8381009A847
:102D70000A930B930F92FFF7B7FCDBE70A4601AB10
:102D80006946A84710B070BD1F4A1378013303F09D
:102D90000703D9011370C9B29A0748BF41F0400137
:102DA0005B0748BF41F0200110310022C9B205ABDA
:102DB0000DF1170C4FF4807EB2B1BEFBF2F2D2B22D
:102DC000501CC0B200FB0115C5F307262D1218BF19
:102DD00006F1FF35D8701D7000B1DA70013363451C
:102DE00007D09A79002AE8D1DA701A700133634566
:102DF000F7D1226875E702A92046904710B070BD50
:102E0000212A0000952900006C88FF1F2DE9F84356
:102E1000324D334C334FDFF8D09001210D2000F0BC
:102E2000A5FC2E6840F2EE2802F07CF82378002BF7
:102E300047D03B78DB0744D52B68D9F800209B1A94
:102E40000E2B3ED929484FF4614100F059F80A246D
:102E500001210D2000F064FCC82000F0E3FC0D20EF
:102E6000002100F05DFC4FF4FA7000F0DBFC013C47
:102E7000EED10D211E4801F04FFF05211D4801F044
:102E80004BFF1D4800F03EF901210D2000F06EFCC3
:102E9000FEF7CAFEFDF7ECFF0920FDF783FF0A20CD
:102EA000FDF780FF0420FDF77DFF0320FDF77AFF8B
:102EB0000620FDF777FFBDE8F84310480C2101F02C
:102EC0002BBF2B6822789B1B2AB1B3F5FA6FB9D8B8
:102ED00002F028F8A8E74345FAD9B3E7688CFF1F4A
:102EE000D48DFF1FF88DFF1FFC8DFF1F4487FF1F30
:102EF00040620000506200007487FF1F58620000AB
:102F0000084B10B503EB51030446B3FBF1F000F09E
:102F1000D5FC054B1B7803B110BD2046BDE8104021
:102F200002F0A4B8004495087187FF1F08B5084651
:102F300000F0B2FE012008BD08B5084600F0ACFE66
:102F4000012008BD38B508460D4603F059F804467F
:102F50000146284600F01CFF204638BD10B5084643
:102F60001446114600F014FF204610BD08461146D5
:102F700001F03CB90846114601F01CB901F034B823
:102F800008B5084600F068FE003818BF012008BDEB
:102F900008B5084600F03EFE003818BF012008BD05
:102FA0000846114600F0CABD084600F005BE00BF45
:102FB000084600F0A7BD00BF00F03CBD10B50648B4
:102FC000144600EB5100B0FBF1F000F077FC204616
:102FD000BDE8104000F0E0BC0044950800F0DEBF02
:102FE00000F096BF00F080BF00F05ABF00F064BF51
:102FF0000368064A1B68934205D110B5C8B200F0B9
:103000004BFE012010BDC9B2184700BF392F000088
:103010000368064A1B68934205D110B5C8B200F098
:103020003BFE012010BDC9B2184700BF392F000078
:103030000368064A1B68934205D110B5C8B200F078
:103040002BFE012010BDC9B2184700BF392F000068
:103050000368064A1B68934205D110B5C8B200F058
:103060001BFE012010BDC9B2184700BF392F000058
:1030700070B5012A8AB008BF0A22A1B34FF0210E11
:1030800002E05FFA86FE2946B1FBF2F502FB151459
:103090005FFA84FC092C0CF1300498BF5FFA84FCC1
:1030A0000EF1280488BF0CF1370C6C4488BF5FFA1E
:1030B0008CFC91420EF1FF3604F824CCE1D24BB1E6
:1030C0000EF1FF3E5FFA8EFE0EF128036B442D22B7
:1030D00003F8242C036801A95B68CEF12202714435
:1030E00098470AB070BD30228DF825204FF0210E90
:1030F000E5E700BF0029BABF49422D2300230A2279
:10310000FFF7B6BF00B5036883B040F60D22ADF8F7
:1031100004205B68022201A9984703B05DF804FB14
:1031200032B9036800B51B685DF804EBC9B21847F3
:10313000FFF79EBF08B5FFF769FEFFF715FA01F02C
:10314000F1FEFAE701B441EA000313F003036FD183
:10315000403A41D351F8043B40F8043B51F8043B5A
:1031600040F8043B51F8043B40F8043B51F8043B61
:1031700040F8043B51F8043B40F8043B51F8043B51
:1031800040F8043B51F8043B40F8043B51F8043B41
:1031900040F8043B51F8043B40F8043B51F8043B31
:1031A00040F8043B51F8043B40F8043B51F8043B21
:1031B00040F8043B51F8043B40F8043B51F8043B11
:1031C00040F8043B51F8043B40F8043B51F8043B01
:1031D00040F8043B403ABDD2303211D351F8043BA1
:1031E00040F8043B51F8043B40F8043B51F8043BE1
:1031F00040F8043B51F8043B40F8043B103AEDD250
:103200000C3205D351F8043B40F8043B043AF9D2A0
:1032100004320AD0D2071CBF11F8013B00F8013B71
:1032200003D30B7803704B78437001BC704700BF29
:103230000C2A4AD310F0030311D0C3F10403D21AAD
:10324000DB071CBF11F8013B00F8013B07D311F865
:10325000013B00F8013B11F8013B00F8013B11F084
:1032600003033FF475AF30B4043AC91AC3F1040C38
:1032700051F8044B022B19D0032B0BD0240A51F820
:10328000043B1D0644EA050440F8044B1C46043A7E
:10329000F4D216E0240E51F8043B1D0244EA050462
:1032A00040F8044B1C46043AF4D20AE0240C51F8CE
:1032B000043B1D0444EA050440F8044B1C46043A50
:1032C000F4D20432B1EB0C0130BC043AA0D3013A81
:1032D00011F8013B00F8013BF9D20B7803704B78F1
:1032E00043708B78837001BC704700BF08B50F4CEA
:1032F000636B58030DD4636B59050FD4636B1A05C8
:1033000011D4636BDB04F3D500F012F8636B580340
:10331000F1D501F039F8636B5905EFD500F008F8E5
:10332000636B1A05EDD500F083FEEAE700800440E8
:1033300008B5FFF7DBFF00BF014B10221A80704772
:1033400000200540704700BF0078B0FA80F04009C7
:10335000704700BF01230370704700BFEFF3138372
:10336000CBB9EFF31080A0B9EFF3058343B94FF465
:103370008070EFF311835BB1984228BF1846704705
:103380000F2BF6D9054AD05CEFF31183002BF3D154
:103390007047184670474FF0FF307047F0E300E089
:1033A00001F1FF3C70B56546002401E07046013430
:1033B000B0FBF2FE02FB1E03092B03F130068ABFAD
:1033C0003733F3B2DBB2904205F8013FEED2631C13
:1033D0000022CA54C8187CB162461CF8015F10F87C
:1033E00001ED8CF800E0A1EB0C030232013B521A14
:1033F00023449A420570EFDB084670BD10B40F4BB2
:1034000053F8302092F880422CB1012391B182F818
:10341000803010BC704703EBC0035B681A6821B9A9
:1034200022F0020210BC1A60704742F0030210BC86
:103430001A60704782F8003110BC70471C640000AD
:10344000034B002210215A615A601860596170477D
:1034500000D00340704700BFF0B54FF0E0244FF4B8
:1034600000054FF0807CC4F80851C4F808C14FF043
:10347000007CC4F808C11D4A1D481E494FF0806CED
:10348000C4F808C12823002748F6FF7609254FF025
:10349000006CC4F808C183B057609660D360536174
:1034A000D3615362D3625363D3635364156047603F
:1034B0008660C360436105604F608E60CB604B6186
:1034C0000D6001F0FBFDFFF7C5FF0B4C2368009377
:1034D000009B132BFAD901F011FB23680193019B88
:1034E000B3F5967FF9D303B0F0BD00BF0080034071
:1034F0000090034000800B40688CFF1F28287F4B02
:1035000036D000291B783FDD012202FA03FC614519
:1035100010B554D2C21E012A70D9202867D01928AC
:1035200065D0774A926802FB011222FA03F3421F28
:103530001B2A7DD8DFE812F0C600BF007C007C00AB
:10354000B800B1007C007C007C007C007C007C002A
:103550007C007C007C00AA00A3009C0095007C00FD
:10356000CD007C007C007C007C007C007C00D400D2
:1035700018780B2895BFC0F10C000C3801FA00F048
:1035800041FA00F001F0FEBD212817D85D4B53F839
:10359000302092F8801203EBC00300293CD00121B7
:1035A0005B6882F8001101204FF4A27182F880025A
:1035B00019601A6822F020021A60704770472128AB
:1035C00014D8504B53F8301091F8804203EBC003ED
:1035D00044B35B6881F880204FF4A272012081F827
:1035E00080021A601A6822F020021A6010BD464A52
:1035F000926802FB011222FA03F398E7434CA26897
:10360000042802FB011222FA03F270D1404BA2619E
:103610004FF45171596310BD5B68196821F00201C4
:103620001960C0E75B681A6842F003021A60D3E7CA
:103630002128DBD87F29D4BF00210121FFF7DEFE3E
:10364000304B03EBC00253F83010536801244FF4A1
:10365000A27281F880421A601A6822F020021A6071
:1036600010BD27482B4A836140F24441916010BD50
:103670002348284A036140F24441516010BD20486C
:10368000254A036440F24441916110BD1C48224A1E
:10369000836340F24441516110BD19481D4A836261
:1036A00040F24441116110BD15481A4A036240F2CC
:1036B0004441D16010BD1248174A036340F24441AF
:1036C000116110BD0E48144A836440F24441D16137
:1036D00010BD0D48114A83614FF45171D16410BD82
:1036E00009480E4A03614FF45171916410BD084BB3
:1036F00022614FF45171196310BD00BF5887FF1F3D
:10370000008003401C64000000800B4000900340D8
:103710000090044000B0044000C0044000A00440F9
:10372000212816D810B4104B53F8302092F880425C
:103730002CB1012371B982F8003110BC704703EB42
:10374000C0035B681A6849B142F0030210BC1A60FA
:103750007047704782F8803010BC704722F0020238
:1037600010BC1A60704700BF1C640000212820D8DC
:103770001B4A02EBC00301295B680FD004291DD04E
:1037800052F83000002280F8802299B1022922D01C
:1037900003290DD14FF481721A60704752F830003E
:1037A0004FF4A27280F880121A601A6822F0200288
:1037B0001A6070474FF480721A60704752F83010E8
:1037C0004FF4A272012081F880021A601A6842F058
:1037D00020021A60704740F203121A60704700BF5F
:1037E0001C64000072B60D494FF0E022936908682E
:1037F000D2F8042D62B6520102D5322B88BF0130B7
:10380000074AC3F58C334FF47A7103F23F13A2FBDE
:10381000032301FB00F000EB13107047688CFF1FBF
:10382000398EE3382DE9F843044672B6204F4FF045
:10383000E02293693D68D2F8042D62B6520102D5A8
:10384000322B88BF01350CB9BDE8F883DFF86490EE
:10385000DFF86480A9EB0303A8FB03234FF47A721B
:1038600002FB05F505EB13154FF0E02672B6B169C2
:103870003A68D6F804CD62B6A9EB0103A8FB0303AE
:103880001CF0806FC5EB13134FF47A7002D032290D
:1038900088BF013200FB0233B3F57A7F04D3013CC9
:1038A000D2D005F57A75E1E701F03CFBDEE700BF19
:1038B000688CFF1F3F190100398EE3382A4A2B49D3
:1038C000536B70B443F40063294D5363294E2A4C63
:1038D000327800232B700B70284923700B70284915
:1038E000092A0B7033D01A2A03D1264B40F2133227
:1038F0005A60254B1B780A2B31D01F2B03D1214B4B
:103900004FF451721A602028204B214C38BF2020E0
:10391000C0F3443C83F800C0C0F3471C00F01F0014
:1039200083F801C00422987202209A70D87488200B
:103930005A754FF0E021187440223C20D87084F86A
:103940002F204FF4004370BCC1F804317047114B75
:1039500040F21332DA600C4B1B780A2BCDD10D4BA1
:103960004FF451721A61CEE700800440B88CFF1FFB
:10397000B08CFF1F6887FF1FEC8CFF1FF48CFF1FAC
:10398000C08CFF1F00D004407087FF1F00B00640AE
:1039900000E400E000B00440214B21499B7800F096
:1039A000030203F0EC031343420700F00F0248BF89
:1039B00043F01003042A8B7003D18B7943F040034A
:1039C0008B71174B164A5B79C10603F0EF0348BFB2
:1039D00043F0100353719379820603F0EF03104A0A
:1039E00048BF43F0100310F40070937110D0937827
:1039F0000C4943F0A003937009780B4B0B4A03EB7F
:103A0000C10340F247305B68094918601160704794
:103A1000064B074A1968914208BF1860704700BFFB
:103A200000B006407087FF1F1C640000BC8CFF1FA5
:103A3000D400D642294B5B6B1B054DD510B5284CE5
:103A4000237823B101F06EFA2378002BFAD1254AAE
:103A5000254B4FF0E0204FF400440021C0F8844192
:103A6000D1701B78092B2CD01A2B1BD01F4B1B7825
:103A700003F07F030A2B1FD01F2B0ED01C4B194ABB
:103A80001C4C1D48196892F804C0D2790023237099
:103A9000037009B101230B7010BD184B40F20312E3
:103AA0001A60EBE7154B40F203125A600F4B1B787C
:103AB00003F07F030A2BDFD1114B40F203121A618E
:103AC000DCE70F4B40F20312DA60084B1B7803F07F
:103AD0007F030A2BD0D1EFE7704700BF008004407E
:103AE000C08CFF1F00B006406887FF1F7087FF1F54
:103AF0006C8CFF1FB08CFF1FB88CFF1F00D00440E0
:103B000000B004400A4A38B50546137803F0FF04B4
:103B1000002BFAD101212846FFF728FE214628462E
:103B2000FFF7FEFD034A044B52F835201A6038BDFA
:103B3000C08CFF1F1C640000BC8CFF1F09B140F04B
:103B40008000194A1378834217D010B4174C646B65
:103B500024050FD503F07F030A2B21D01F2B14D08F
:103B6000002900F07F0314BF602144210A2B10D0EC
:103B70001F2B03D0107010BC704770470C4B41F4E2
:103B800040711960107010BC7047094B00241C6014
:103B9000E6E7084B41F440711961107010BC7047A2
:103BA000044B00241C61DBE77087FF1F008004408A
:103BB00000D0044000B00440124B1A7882420CD06E
:103BC0001149496B090507D5092A16D01A2A0AD0C6
:103BD00009280DD01A2801D0187070470B4A40F2FE
:103BE00013315160F8E7094A002109285160F1D1E9
:103BF000074A40F21331D160EEE7054A0021D16057
:103C0000E6E700BF6887FF1F0080044000D0044043
:103C100000B004400D4B5B6B13F4006313D02128FC
:103C200003D90B4B0020186070470A4B10B5084CA5
:103C300053F8303023600121FFF798FD23680022FC
:103C40001A70012010BD1846704700BF0080044064
:103C50006C8CFF1F1C6400000C4B5B6B13F4006347
:103C600012D0172809D10A4B0A4A40F20231996052
:103C7000537B0120034353737047064A537B03F081
:103C8000FE030020537370471846704700800440BD
:103C900000B0044000B006402DE9F84F334B5B6B99
:103CA0001A053AD5324B1B6806460BB101221A7031
:103CB000DFF8C090DFF8C08099F80040D8F80030F5
:103CC0002E4D0134A3422B7829D99C425FFA84FA05
:103CD00014D12B4FDFF8ACB005E03B791B0623D4A1
:103CE0002B78A3420AD1FFF739FB4028F5DDFF28E6
:103CF000F6DD01F017F92B78A342F4D0272C29D94F
:103D0000214B283C1B68F6B21E55204A1C4B012152
:103D10001170BC2289F800A0DA70BDE8F88F03F0BA
:103D2000FF0AA3B95446D4E72B78D8F800105A1CE0
:103D30009142DBB208D9272A10D8D1B21BF8023041
:103D4000DBB2FB712970CBE700210A46F6E74FF0A2
:103D5000000A54460B4BF6B21E55D6E7D1B20A4ABA
:103D6000273B1268D35CDBB2EBE700BF0080044066
:103D7000BC8CFF1FEC8CFF1F6C87FF1FF48CFF1F98
:103D800000B00640C48CFF1FF08CFF1FC08CFF1FCB
:103D90002DE9F84F394B5B6B1A053CD5384B1B6846
:103DA0000BB101221A704718B84231D2354EDFF8F4
:103DB000D880364CDFF8D89000F1010A13E003F008
:103DC000FF0B53B34FF0000B5D46324A1AF8013C2B
:103DD0005355524630490123BA420B700AF1010A89
:103DE00086F800B014D23578D8F800300135AB42EF
:103DF0002378E4D9AB425FFA85FB0FD0272DE4D9B5
:103E0000264B1AF8012C1B68283D5A555246E1E70B
:103E10001F4BBC22DA70BDE8F88F5D466FF043039C
:103E200089F8033006E099F804301B060BD4237898
:103E3000AB42E3D1FFF792FA4028F4DDFF28F6DD2C
:103E400001F070F8F3E72378D8F800105A1C91427B
:103E5000DBB203D9272A0AD8D1B201E000210A46F1
:103E60000C4B9B5CDBB289F807302170DFE7D1B2E5
:103E70000A4A273B1268D35CDBB2F4E700800440B7
:103E8000BC8CFF1FEC8CFF1F6C87FF1FF48CFF1F87
:103E900000B00640C48CFF1FC08CFF1FF08CFF1FBA
:103EA00010B5044C237823B101F03CF82378002BA3
:103EB000FAD110BDC08CFF1F084A094B11781A783F
:103EC0009142C8B2D3B202D2013B181A7047054AD8
:103ED0001268013A1344181A704700BFEC8CFF1F98
:103EE000F48CFF1F6C87FF1F064A074B11781A7866
:103EF0009142D0B23CBF054A1268CBB238BF9B1882
:103F0000181A7047B08CFF1FB88CFF1F6487FF1F03
:103F10001B4B1C491A780B789A422ED010B55FFAC9
:103F200082FE194AD8B21268431C9A4219D93F2B13
:103F30001BD85FFA83FC1548C05CC0B281F800C092
:103F40001349096861B19E453CBF7244D31A114AB6
:103F5000126828BFAEEB03039A4201D300230B7013
:103F600010BD4FF0000C6346E5E70B4C3F3824686A
:103F7000205C5FFA83FCC0B2E0E74FF0FF3070478F
:103F8000B08CFF1FB88CFF1F6487FF1F708CFF1F52
:103F90006C8CFF1F6087FF1FB48CFF1F0D4A0E4BF8
:103FA00011781B789942DAB211D00C490968531C78
:103FB000994207D93F2B06D9094B3F3A1B68985CB9
:103FC000C0B270470023074AD05CC0B270474FF0C0
:103FD000FF307047B08CFF1FB88CFF1F6487FF1F36
:103FE000B48CFF1F708CFF1F0C4B5B6B1B0514D533
:103FF0000B4B0C48DA78402102F0CB02DA7059748E
:10400000DA78094942F03402DA70084A0378126813
:10401000DBB20B700AB100231370704700800440BC
:1040200000B00640B88CFF1FB08CFF1F6C8CFF1FC8
:104030002DE9F041504C237913F0300F47D072B680
:10404000A37D03F0FF01002B58D062B6DFF82C816E
:104050004B4898F800304B4A057816684A4F5FFA8B
:1040600083FC4A4BEDB2D3F800E008E01DB14FF0FD
:10407000000C07F80C304A1E12F0FF0112D0E37951
:104080000CF101029642DBB2F0D99542ACF13F004F
:10409000F1D03F2A6DD994464A1E12F0FF010EF866
:1040A0000030ECD15FFA8CF388F80030384B196897
:1040B00069B1AC453CBF721B02EB0C03354A126878
:1040C00028BFACEB05039A429CBF01230B702A4822
:1040D000C3781E06DDB216D46A060DD5264B1B79B1
:1040E0005B0609D52C4B2D491B6800220A7003B1D1
:1040F0001A70214B3C22DA70BDE8F0814023E2794E
:10410000637462B6E3E703791C06E5D5244B254AC0
:10411000DFF894E01C7816689EF80030234A244F9C
:10412000D2F800C0E4B2DBB207E003790023FA5C06
:10413000D2B2C271027D072A11D8A34203F1010154
:104140000ED08E42F1D927290279A3F1270301D895
:104150000B46ECE71CF803200B46D2B2E9E7DCB2D1
:10416000054B8EF800401A79110644BF7C22DA70A4
:10417000B2E794467DE700BF00B00640B08CFF1F59
:10418000B88CFF1F6487FF1F708CFF1FB48CFF1F4C
:104190006C8CFF1F5C87FF1FBC8CFF1FC08CFF1F38
:1041A000EC8CFF1F6C87FF1FF48CFF1FF08CFF1F30
:1041B000C48CFF1F094B10B4186060B101F14004BA
:1041C000074B084801F11A021A60074B04602831B6
:1041D00010BC196070474024F2E700BFB48CFF1F89
:1041E0006087FF1F6487FF1F5C87FF1F054B1860F8
:1041F00018B1054B283119607047034B282119600D
:10420000704700BFF08CFF1F6C87FF1F704700BF17
:10421000431E032B17D872B60C4951F8230080B106
:1042200010B40B4CB0F800C034F81320A2EB0C0211
:10423000D0F804C041F823C024F8132062B610BCA3
:10424000704762B670470020704700BF888DFF1F1F
:10425000D88DFF1F013803280BD872B6074B53F8CF
:10426000203043B100205B680130002BFBD162B6E7
:104270007047002070471846F9E700BFB08DFF1F58
:1042800010B472B6194A1A4C042312F8011B09071C
:1042900043F0010C05D554F8331061B154F83C10CB
:1042A000B9B10433142BF0D162B6124B00221A704C
:1042B00010BC00F09BBC0F4904EBC30208305060F7
:1042C0000A780D4844F83300013A0A7062B610BC0F
:1042D0007047084A094904EBCC030830586013784A
:1042E00044F83C10013B137062B6F0E7AC65000087
:1042F0000080FF1FE08DFF1F88004000C8004000C5
:10430000421E032A0ED81C4B400140F0100010B48E
:10431000034472B6194CA05C03281CD8DFE800F0F7
:104320001315031870470520A05413F0080F0888D0
:1043300014BFC8228822083142EA004259601A603C
:1043400062B610BC70470320EEE708330220EBE7AB
:1043500008330420E8E70A4B53F8220038B1094B30
:1043600053F82200416043F8221062B6E9E743F8AF
:104370002210044BF7E700BF0080FF1FD08DFF1F06
:10438000B08DFF1FC08DFF1F2DE9F04FDFF8CCA2CD
:10439000DFF8CCB285B03DE0B24D9E0805EBC60714
:1043A000013A796813F00803D4B2A1F1080040F093
:1043B000B88055F836204FEA124C120C21F808CC80
:1043C00000F0A78021F8063C41F8043CA64B53F8C6
:1043D0002420002A00F00182A44B53F824205060CE
:1043E00043F82400A24B33F81420944423F814C05B
:1043F00000F0DCFB002800F0E98117F0080F9D4B6E
:1044000000F1080018BF5B46786045F83630082395
:104410008AF880309AF880305907DCB21BD5964B69
:104420001B78ABB195490A7802F0FF032AB1013B32
:10443000DBB20B70002B00F0468391490A7802F042
:10444000FF032AB1013BDBB20B70002B00F0EB81C4
:1044500004238AF8803014F0080200F0CC819AF826
:104460009020D3B2120997D1DFF8F8919B0809EB9D
:10447000C30459F833006468C0F3830009287CD072
:104480000FD80138012808D87E4A158842F2210049
:10449000854200F0FB8149F833B001238AF894305B
:1044A000B5E70D28F9D1D4E90007774D49F833B0C5
:1044B000744E764CC9F8102083B240F2816CC9F872
:1044C00018202A6063454FF00102C6E900072270F8
:1044D00000F2FF80B3F5D06F80F0CB82B3F5817F1F
:1044E00000F0268240F2DE8040F2023293427BD11D
:1044F00007F07F07042F00F20881020C40F00581CD
:10450000634911F8273043F0020301F827301346BE
:1045100070E017F0080F574B18BF5B4645F8363070
:1045200075E700F063FB5B495B4A51F82430002BD0
:1045300000F05781586841F82400115D03F108002C
:104540007860032905D8DFE801F0120F1502042175
:1045500011551A8817F0080F14BFC823882343EA9F
:10456000024345F8363052E702211155F1E70321A5
:104570001155EEE705211155EBE7434D2A683AB393
:104580004649424C0F88464894F800E00678402F90
:104590003B4628BF4023BEF1000F8EF0010E84F889
:1045A00000E046F0020486F00106067009EBC40044
:1045B000426014BFC820882040EA03401A44FB1A16
:1045C0009BB249F834000B80002B00F036812A6042
:1045D0002C4B1A88B2F5A06F7FF45FAF9A788AF8F7
:1045E000982000225A7058E7B3F5A06F40F08D80F4
:1045F00000221346B6F806C02948944528BF9446C1
:1046000067460278402F28BF402742F0020E3E0442
:1046100009EBCE0846F0C806C8F8043049F83E60F9
:1046200000263B442670BCEB070782F001060670AB
:1046300040F01181BCF13F0F4FF0010509D946F060
:104640000206027009EBC60225705360882349F800
:10465000363001238AF894301FE700BF002007405E
:10466000C80040000080FF1F888DFF1F988DFF1F2E
:10467000D88DFF1F88004000D48DFF1FD58DFF1FF0
:10468000008EFF1FA88DFF1F7C8DFF1F798DFF1FE0
:10469000C0200740B08DFF1FD08DFF1F7A8DFF1FF8
:1046A000788DFF1F802B00F08B81822B2DD107F09E
:1046B0007F07042F29D8A74A00231380A64B13F89D
:1046C00027309F0740F1FC8101231370A14B022288
:1046D00090E742F2210C6345BBD01DD942F2212262
:1046E00093420DD1BFB2002F82D19C4B1A689C4BD4
:1046F0001A609C4BC0F3074000221870134679E7FC
:1047000042F2213293423FF473AF0F238AF8C03054
:1047100001238AF89430C0E6B3F5086F00F04A81AF
:10472000B3F5106FF1D1904BC0F30740042518701A
:1047300059F835301A0606D40135142D0CD059F825
:1047400035301A06F8D509EBC50301355868083825
:1047500000F04CFA142DF2D1844A854B0292854A1E
:104760000192854E854ADFF8188203940092002555
:104770001C4656F8047B2FB138467F6800F036FAA5
:10478000002FF9D1009BD8F8007043F8045B46F87D
:10479000045C00932FB138467F6800F027FA002FA1
:1047A000F9D1029B48F8045B43F8045B0293019B38
:1047B00023F8025B01932378023B032B00F209816B
:1047C000DFE813F03F0104013F0104016D4A45F8A1
:1047D000360013780133137019E643F82400674B51
:1047E000FEE5115D022926D07FF611AE03291DD109
:1047F000012313550BE6E0076ED4210621D4A2074E
:1048000008D5614B93F888200221D2B283F8882022
:1048100083F88010E30603D55B4B102283F88020D9
:1048200005B0BDE8F08F00F059FB11E617F0080F56
:1048300014BF032302231355E9E53F2F98BF00223D
:10484000C5E6514B80220D2183F8C01083F88020EB
:10485000A207DFD5D5E746F002060270402F09EB2C
:10486000C6003A4628BF402243601004134440F07B
:1048700088000121BA1A49F83600217055D02B6002
:10488000424B1A8001238AF8943006E692885AB97E
:104890003F4AE51D14F8011B02F8011FAC42F9D193
:1048A0003C4A1268862A3CD03B4C3C48257802782A
:1048B000002D85F00105257042F0020482F001020E
:1048C000027009EBC4024FF00000506014BFC82210
:1048D000882249F83420DEE52B4B30483049314CF2
:1048E000022583F8945002702F480C602F4D4860C9
:1048F0008C600D24CD60FF200A618A6183F8C0407E
:1049000001219F2483F8880083F8800083F8982091
:1049100083F88C0083F8844083F8941005B0BDE8D8
:10492000F08F234A0F201070BEE73F2FA7D890E6E4
:1049300007F07F07042F3FF6E8AE000C7FF4E5AEEA
:10494000054A12F8273023F0020302F8273000222C
:1049500013464FE6808DFF1FC0200740688CFF1F65
:10496000FC8DFF1FF88DFF1FD48DFF1FC08DFF1F13
:10497000D08DFF1FD88DFF1F888DFF1F988DFF1FC3
:10498000B08DFF1FE08DFF1F002007407A8DFF1FB5
:10499000EF8DFF1FF08DFF1F798DFF1F788DFF1F9B
:1049A0000080FF1F88004000F88CFF1F388DFF1F1C
:1049B000D58DFF1F484B49491B780B700B4619E6F4
:1049C000464A00231380454B022213E64FF00103B1
:1049D0002370434BB34204F101047FF4CAAE414E4D
:1049E000039CDFF80481414F00233370042518F83D
:1049F000013B3F4AAB541B0725D445F0020145F06B
:104A0000030204350023142D49F8313049F83230BF
:104A1000EDD1384F25783A7842F0020009EBC00C0E
:104A200085F00106CCF80430002D4DD1882382F0AA
:104A3000010226703A7049F8303001238AF8943028
:104A40002BE52570C5E700F0B1F8002832D009EB5E
:104A5000C5030830586049F8357000F0A7F808B36E
:104A600045F0010309EBC3020830506049F833B048
:104A7000C3E7214A5368002B3FF447AE000CBFB296
:104A800004E013690C32002B3FF43FAE11888142E1
:104A9000F7D15188B942F4D1000A03280CBF1A7823
:104AA0001289A7E533780133337045F0010349F8E3
:104AB0003300A2E7337849F8350001333370CCE78F
:104AC000064B022296E500BE2670C82382F001063E
:104AD0003E7049F83030BCE5D48DFF1F808DFF1F3C
:104AE000988DFF1FE08DFF1FAC650000880040001F
:104AF000C0200740788DFF1F5865000070B500F09A
:104B000061FB00231A4A194642F8331002EBC30036
:104B10000133142B4160F7D1164C174B606B174DC6
:104B200040F480206063C2F3072483F89C40144C57
:104B3000FF204FF0010CC2F30746120E83F8B0605D
:104B40004FF0E02E83F8B42083F8800083F88800CB
:104B5000187483F894C0217083F884C0702385F89A
:104B600049304FF400721023CEF80821237270BD33
:104B70000080FF1F008004400020074000E400E0A8
:104B80000021074000F0ACB800F07CB800F056B847
:104B900000F090B800F076B900F050B90846114620
:104BA00000F0BAB8084600F03BB900BF72B60D4934
:104BB0000B68B3FA83F00B2810DC4FF00042C240C0
:104BC00023EA02030B6062B6074A00EBC000C10093
:104BD00002EBC000002353504360704762B60020D0
:104BE000704700BF8487FF1FBC83FF1F0E4BC31A93
:104BF000B3F5587F10D20D4A127872B972B60C4ACA
:104C00000C49A2FB032308684FF000421B0922FA5B
:104C100003F303430B6062B67047074A1278002A19
:104C2000ECD0FFF72DBB00BFBC83FF1FE08DFF1F43
:104C3000398EE3388487FF1FD48DFF1F38B50F4CA2
:104C4000206878B143880288C11801339A420D7AEE
:104C500002D94380284638BDFFF7C8FF00232360F0
:104C6000284638BD064B1B782BB10320FFF7D0FA3E
:104C700020600028E6D14FF0FF35EBE7E48DFF1F01
:104C8000D48DFF1F10B5094C206818B14388184413
:104C9000007A10BD064B1B782BB10320FFF7B8FA42
:104CA00020600028F2D14FF0FF3010BDE48DFF1FCF
:104CB000D48DFF1F084B094A1B6810B594881BB19F
:104CC0001A885B88D31A1C440CB1204610BD00F032
:104CD00029F9204610BD00BFE48DFF1FD88DFF1FAE
:104CE0000B4B1B789BB110B50A4C206848B1FFF7FD
:104CF0007DFF002303202360FFF78AFA30B1FFF71E
:104D000075FF0320FFF784FA0028F8D110BD704723
:104D1000D48DFF1FE48DFF1F2DE9F04FDFF8EC90DD
:104D200083B0012289F80020019179B3384FDFF870
:104D3000E480019D384EDFF8E4A083463968A1B3D2
:104D4000B1F802E0CEF1400CAC4528BFAC460EEB0A
:104D50000C040022A4B23270A5EB0C054C8001F1CA
:104D60000802BCF1000F0AD00EF1FF3E7244DC4491
:104D70001BF8014B02F8014FDC45F9D14C883F2C60
:104D80000BD805228AF80020002DD7D101980023E6
:104D900089F8003003B0BDE8F08F40220A8004207B
:104DA000FFF7AEFA00223A60EBE798F800202AB34A
:104DB00048F6014408E0013C19D03278BAB900F055
:104DC000B1F898F80020CAB10420FFF743FA072889
:104DD000F1D84FF0010389F80030FFF7E7FE0146F4
:104DE00038600028ACD1013C89F80000E5D10123EE
:104DF0004FF0FF30337003B0BDE8F08F00234FF069
:104E0000FF3089F8003003B0BDE8F08FE98DFF1F57
:104E1000EC8DFF1FD48DFF1FE88DFF1F008EFF1F3D
:104E200000B583B0034601210DF107008DF807306E
:104E3000FFF772FF03B05DF804FB00BF38B50E4DFD
:104E40000E4C28680123237028B140880023C0F14C
:104E50004000237038BD0A4B1B7813B90020207026
:104E600038BD0420FFF7F6F90728F7D8FFF79EFEB4
:104E700028600028E9D1F1E7EC8DFF1FE98DFF1FC5
:104E8000D48DFF1FF8B5114B1B788BB1104E114D0F
:104E9000346801272F7064B10F4B00271F7063889F
:104EA000238021460420FFF72BFA376000232B7064
:104EB000F8BDFFF77BFE084B014620B104201C70B3
:104EC000FFF71EFAF2E71F70F0E700BFD48DFF1F57
:104ED000EC8DFF1FE98DFF1F008EFF1F38B50E4BB5
:104EE0001B7853B90D4C216841B103F0FF054B8885
:104EF0000B800420FFF704FA256038BDFFF756FE4B
:104F0000014620B1BDE838400420FFF7F9B9044B51
:104F100001221A7038BD00BFE98DFF1FEC8DFF1F05
:104F2000008EFF1F2DE9F843324E337863B1324FC4
:104F30003A784AB90122D9073A7043D49A0726D45D
:104F400000225B073A7001D4BDE8F8832B4B1A6846
:104F5000002AF9D0EFF30582002AF5D1EFF310858E
:104F600072B6186800283AD0254C2178002936D12D
:104F700042691A6001232370002A37D0916105B974
:104F800062B600258368457798472570DCE7DFF82F
:104F9000748098F80020002AD2D00025DFF86890AD
:104FA0002B4659F82340236820461B690135984752
:104FB00008B12369984798F80020EBB29A42F0D8DC
:104FC0003378BDE7FFF776FE68B9104B1B780BB955
:104FD0003378B3E7337803F0FE033370AEE7002D88
:104FE000B2D162B6B0E700F0EBF8EEE7084B1A601A
:104FF000C5E700BF8887FF1F018EFF1F048EFF1FBC
:10500000108EFF1F248EFF1F188EFF1F5465000097
:10501000148EFF1F70B5EFF3108272B60C4C20682F
:1050200080B10C4E00254369236073B19D6102B9C4
:1050300062B6836845779847EFF3108272B62068AE
:105040000028F0D102B962B670BD3360EFE700BF4F
:105050000C8EFF1F088EFF1FFFF7DCBF024A13688C
:1050600001331360704700BF688CFF1F70B4104E8F
:10507000104D3478D4B1621ED2B2291D2B4601EBFB
:10508000820101E08B4205D053F8042B8242F9D112
:1050900070BC7047631CDBB2074A3370137845F865
:1050A000240043F00203137070BC70470123F3E740
:1050B000248EFF1F188EFF1F8887FF1F2A4B2B4A45
:1050C0006020E1211870597013782948082B34D0DA
:1050D0000A2B20D00C2B274B0CBF15213D2112226F
:1050E0008160C2609960DA60234B21491B78214AB4
:1050F000CBB101230B621362204B1D491B781D4A63
:10510000012B13D9042B1BD884234B6253621C4BF5
:1051100001221A707047174B192113228160C26057
:105120009960DA60E0E70B621362E5E780234B6287
:105130005362134B01221A7070470E4B0121ECE7AA
:10514000082B06D885234B6253620D4B01221A703F
:105150007047102B94BF862387234B625362084B02
:1051600001221A70704700BF004007408987FF1F67
:1051700000B0034000B00B40258EFF1F8A87FF1F41
:10518000268EFF1F0B4A0C49D36A43F48053D36227
:105190000B784BB1094B802283F82120074B80F319
:1051A0000C0000B218807047044BC02283F8212005
:1051B000F4E700BF00800440258EFF1F00C00C40B4
:1051C000704700BF10B584B072B6174A70244120F2
:1051D0000F2180231470D0719171137013781B0606
:1051E000FCD5906862B6114B114C984238BF00EB69
:1051F000800001A938BF40000A22FEF7D1F801A9BA
:105200002046002311F8012B01333AB10A2B20F874
:10521000022FF7D11623237004B010BD5B00DBB260
:10522000237004B010BD00BF0000024080969800BB
:105230001888FF1F81F0004102E000BF83F00043A7
:1052400030B54FEA41044FEA430594EA050F08BF21
:1052500090EA020F1FBF54EA000C55EA020C7FEAE5
:10526000645C7FEA655C00F0E2804FEA5454D4EB62
:105270005555B8BF6D420CDD2C4480EA020281EA2C
:10528000030382EA000083EA010180EA020281EA64
:105290000303362D88BF30BD11F0004F4FEA0131B6
:1052A0004FF4801C4CEA113102D0404261EB4101C5
:1052B00013F0004F4FEA03334CEA133302D052424B
:1052C00063EB430394EA050F00F0A780A4F1010407
:1052D000D5F1200E0DDB02FA0EFC22FA05F2801841
:1052E00041F1000103FA0EF2801843FA05F3594127
:1052F0000EE0A5F120050EF1200E012A03FA0EFCA6
:1053000028BF4CF0020C43FA05F3C01851EBE371CF
:1053100001F0004507D54FF0000EDCF1000C7EEBEC
:1053200000006EEB0101B1F5801F1BD3B1F5001F2A
:105330000CD349085FEA30004FEA3C0C04F1010449
:105340004FEA445212F5800F80F09A80BCF1004F72
:1053500008BF5FEA500C50F1000041EB045141EAF4
:10536000050130BD5FEA4C0C404141EB0101013CBD
:1053700028BFB1F5801FE9D291F0000F04BF0146AC
:105380000020B1FA81F308BF2033A3F10B03B3F17E
:1053900020020CDA0C3208DD02F1140CC2F10C020E
:1053A00001FA0CF021FA02F10CE002F11402D8BF6C
:1053B000C2F1200C01FA02F120FA0CFCDCBF41EA38
:1053C0000C019040E41AA2BF01EB0451294330BD07
:1053D0006FEA04041F3C1CDA0C340EDC04F11404E4
:1053E000C4F1200220FA04F001FA02F340EA0300BB
:1053F00021FA04F345EA030130BDC4F10C04C4F101
:10540000200220FA02F001FA04F340EA03002946E0
:1054100030BD21FA04F0294630BD94F0000F83F42A
:10542000801306BF81F480110134013D4EE77FEA0D
:10543000645C18BF7FEA655C29D094EA050F08BF59
:1054400090EA020F05D054EA000C04BF194610463A
:1054500030BD91EA030F1EBF0021002030BD5FEA7E
:10546000545C05D14000494128BF41F0004130BDA6
:1054700014F580043CBF01F5801130BD01F00045FA
:1054800045F0FE4141F470014FF0000030BD7FEA6D
:10549000645C1ABF194610467FEA655C1CBF0B4668
:1054A000024650EA013406BF52EA033591EA030F7F
:1054B00041F4002130BD00BF90F0000F04BF002177
:1054C000704730B54FF4806404F132044FF00005AA
:1054D0004FF0000150E700BF90F0000F04BF002123
:1054E000704730B54FF4806404F1320410F0004589
:1054F00048BF40424FF000013EE700BF42004FEA84
:10550000E2014FEA31014FEA02701FBF12F07F4300
:1055100093F07F4F81F06051704732F07F4208BFB7
:10552000704793F07F4F04BF41F40021704730B5BE
:105530004FF4607401F0004521F000411CE700BF0A
:1055400050EA010208BF704730B54FF000050AE08D
:1055500050EA010208BF704730B511F0004502D58E
:10556000404261EB41014FF4806404F132045FEA90
:10557000915C3FF4D8AE4FF003025FEADC0C18BF39
:1055800003325FEADC0C18BF033202EBDC02C2F12B
:10559000200300FA03FC20FA02F001FA03FE40EABD
:1055A0000E0021FA02F11444BDE600BF70B54FF0C1
:1055B000FF0C4CF4E06C1CEA11541DBF1CEA13559F
:1055C00094EA0C0F95EA0C0F00F0DEF82C4481EA07
:1055D000030621EA4C5123EA4C5350EA013518BF27
:1055E00052EA033541F4801143F4801338D0A0FB14
:1055F00002CE4FF00005E1FB02E506F00042E0FBC1
:1056000003E54FF00006E1FB03569CF0000F18BFC6
:105610004EF0010EA4F1FF04B6F5007F64F540746E
:1056200004D25FEA4E0E6D4146EB060642EAC62101
:1056300041EA55514FEAC52040EA5E504FEACE2E6E
:10564000B4F1FD0C88BFBCF5E06F1ED8BEF1004F71
:1056500008BF5FEA500E50F1000041EB045170BDED
:1056600006F0004646EA010140EA020081EA030131
:10567000B4EB5C04C2BFD4EB0C0541EA045170BD2D
:1056800041F480114FF0000E013C00F3AB8014F1A7
:10569000360FDEBF002001F0004170BDC4F10004F0
:1056A000203C35DA0C341BDC04F11404C4F1200571
:1056B00000FA05F320FA04F001FA05F240EA0200CC
:1056C00001F0004221F0004110EBD37021FA04F602
:1056D00042EB06015EEA430E08BF20EAD37070BDBC
:1056E000C4F10C04C4F1200500FA04F320FA05F01B
:1056F00001FA04F240EA020001F0004110EBD3701D
:1057000041F100015EEA430E08BF20EAD37070BD8C
:10571000C4F1200500FA05F24EEA020E20FA04F365
:1057200001FA05F243EA020321FA04F001F0004114
:1057300021FA04F220EA020000EBD3705EEA430E85
:1057400008BF20EAD37070BD94F0000F0FD101F0B4
:105750000046400041EB010111F4801F08BF013CED
:10576000F7D041EA060195F0000F18BF704703F02B
:105770000046520043EB030313F4801F08BF013DB2
:10578000F7D043EA0603704794EA0C0F0CEA13556E
:1057900018BF95EA0C0F0CD050EA410618BF52EA28
:1057A0004306D1D181EA030101F000414FF000002E
:1057B00070BD50EA410606BF1046194652EA43063C
:1057C00019D094EA0C0F02D150EA013613D195EAB0
:1057D0000C0F05D152EA03361CBF104619460AD1F8
:1057E00081EA030101F0004141F0FE4141F4700102
:1057F0004FF0000070BD41F0FE4141F4780170BDF2
:1058000070B54FF0FF0C4CF4E06C1CEA11541DBF56
:105810001CEA135594EA0C0F95EA0C0F00F0A7F858
:10582000A4EB050481EA030E52EA03354FEA013185
:1058300000F088804FEA03334FF0805545EA131398
:1058400043EA12634FEA022245EA111545EA106560
:105850004FEA00260EF000419D4208BF964244F1F7
:10586000FD0404F5407402D25B084FEA3202B61A16
:1058700065EB03055B084FEA32024FF480104FF4EA
:10588000002CB6EB020E75EB030E22BFB61A75465E
:1058900040EA0C005B084FEA3202B6EB020E75EBF1
:1058A000030E22BFB61A754640EA5C005B084FEA59
:1058B0003202B6EB020E75EB030E22BFB61A754626
:1058C00040EA9C005B084FEA3202B6EB020E75EB31
:1058D000030E22BFB61A754640EADC0055EA060EF2
:1058E00018D04FEA051545EA16754FEA06164FEA35
:1058F000C30343EA52734FEAC2025FEA1C1CC0D1E1
:1059000011F4801F0BD141EA00014FF000004FF06D
:10591000004CB6E711F4801F04BF01430020B4F12E
:10592000FD0C88BFBCF5E06F3FF6AFAEB5EB030CE6
:1059300004BFB6EB020C5FEA500C50F1000041EBE3
:10594000045170BD0EF0004E4EEA113114EB5C04B0
:10595000C2BFD4EB0C0541EA045170BD41F4801183
:105960004FF0000E013C90E645EA060E8DE60CEA8B
:10597000135594EA0C0F08BF95EA0C0F3FF43BAFA8
:1059800094EA0C0F0AD150EA01347FF434AF95EA5F
:105990000C0F7FF425AF104619462CE795EA0C0F43
:1059A00006D152EA03353FF4FDAE1046194622E710
:1059B00050EA410618BF52EA43067FF4C5AE50EAEA
:1059C00041047FF40DAF52EA43057FF4EBAE12E7DA
:1059D0004A0011D212F5001211D20DD56FF478736E
:1059E000B3EB62520ED44FEAC12343F0004343EAC3
:1059F000505323FA02F070474FF00000704750EA0E
:105A0000013002D14FF0FF3070474FF00000704777
:105A100080F0004002E000BF81F0004142001FBF63
:105A20005FEA410392EA030F7FEA226C7FEA236C6C
:105A30006AD04FEA1262D2EB1363C1BFD218414061
:105A400048404140B8BF5B42192B88BF704710F0F7
:105A5000004F40F4000020F07F4018BF404211F09A
:105A6000004F41F4000121F07F4118BF494292EA02
:105A7000030F3FD0A2F1010241FA03FC10EB0C002E
:105A8000C3F1200301FA03F100F0004302D54942BB
:105A900060EB4000B0F5000F13D3B0F1807F06D368
:105AA00040084FEA310102F10102FE2A51D2B1F160
:105AB000004F40EBC25008BF20F0010040EA030055
:105AC0007047490040EB0000013A28BFB0F5000FD5
:105AD000EDD2B0FA80FCACF1080CB2EB0C0200FA8B
